{
  "contractName": "BalanceChecker",
  "abi": [
    {
      "inputs": [
        {
          "internalType": "address",
          "name": "_walletAddress",
          "type": "address"
        },
        {
          "internalType": "address[]",
          "name": "_tokens",
          "type": "address[]"
        }
      ],
      "name": "checkBalances",
      "outputs": [
        {
          "components": [
            {
              "internalType": "address",
              "name": "tokenAddress",
              "type": "address"
            },
            {
              "internalType": "uint256",
              "name": "balance",
              "type": "uint256"
            }
          ],
          "internalType": "struct BalanceChecker.Token[]",
          "name": "",
          "type": "tuple[]"
        }
      ],
      "stateMutability": "view",
      "type": "function",
      "constant": true
    }
  ],
  "bytecode": "0x608060405234801561001057600080fd5b50610792806100206000396000f3fe608060405234801561001057600080fd5b506004361061002b5760003560e01c80630379033114610030575b600080fd5b61004a600480360381019061004591906104ae565b610060565b6040516100579190610610565b60405180910390f35b60606000825167ffffffffffffffff81111561007f5761007e61036b565b5b6040519080825280602002602001820160405280156100b857816020015b6100a56102b3565b81526020019060019003908161009d5790505b50905060005b835181101561022457600073ffffffffffffffffffffffffffffffffffffffff168482815181106100f2576100f1610632565b5b602002602001015173ffffffffffffffffffffffffffffffffffffffff16146101a6576000604051806040016040528086848151811061013557610134610632565b5b602002602001015173ffffffffffffffffffffffffffffffffffffffff16815260200161017c8888868151811061016f5761016e610632565b5b602002602001015161022f565b81525090508083838151811061019557610194610632565b5b602002602001018190525050610211565b600060405180604001604052808684815181106101c6576101c5610632565b5b602002602001015173ffffffffffffffffffffffffffffffffffffffff168152602001600081525090508083838151811061020457610203610632565b5b6020026020010181905250505b808061021c90610690565b9150506100be565b508091505092915050565b60008173ffffffffffffffffffffffffffffffffffffffff166370a08231846040518263ffffffff1660e01b815260040161026a91906106e8565b602060405180830381865afa158015610287573d6000803e3d6000fd5b505050506040513d601f19601f820116820180604052508101906102ab919061072f565b905092915050565b6040518060400160405280600073ffffffffffffffffffffffffffffffffffffffff168152602001600081525090565b6000604051905090565b600080fd5b600080fd5b600073ffffffffffffffffffffffffffffffffffffffff82169050919050565b6000610322826102f7565b9050919050565b61033281610317565b811461033d57600080fd5b50565b60008135905061034f81610329565b92915050565b600080fd5b6000601f19601f8301169050919050565b7f4e487b7100000000000000000000000000000000000000000000000000000000600052604160045260246000fd5b6103a38261035a565b810181811067ffffffffffffffff821117156103c2576103c161036b565b5b80604052505050565b60006103d56102e3565b90506103e1828261039a565b919050565b600067ffffffffffffffff8211156104015761040061036b565b5b602082029050602081019050919050565b600080fd5b600061042a610425846103e6565b6103cb565b9050808382526020820190506020840283018581111561044d5761044c610412565b5b835b8181101561047657806104628882610340565b84526020840193505060208101905061044f565b5050509392505050565b600082601f83011261049557610494610355565b5b81356104a5848260208601610417565b91505092915050565b600080604083850312156104c5576104c46102ed565b5b60006104d385828601610340565b925050602083013567ffffffffffffffff8111156104f4576104f36102f2565b5b61050085828601610480565b9150509250929050565b600081519050919050565b600082825260208201905092915050565b6000819050602082019050919050565b61053f81610317565b82525050565b6000819050919050565b61055881610545565b82525050565b6040820160008201516105746000850182610536565b506020820151610587602085018261054f565b50505050565b6000610599838361055e565b60408301905092915050565b6000602082019050919050565b60006105bd8261050a565b6105c78185610515565b93506105d283610526565b8060005b838110156106035781516105ea888261058d565b97506105f5836105a5565b9250506001810190506105d6565b5085935050505092915050565b6000602082019050818103600083015261062a81846105b2565b905092915050565b7f4e487b7100000000000000000000000000000000000000000000000000000000600052603260045260246000fd5b7f4e487b7100000000000000000000000000000000000000000000000000000000600052601160045260246000fd5b600061069b82610545565b91507fffffffffffffffffffffffffffffffffffffffffffffffffffffffffffffffff8214156106ce576106cd610661565b5b600182019050919050565b6106e281610317565b82525050565b60006020820190506106fd60008301846106d9565b92915050565b61070c81610545565b811461071757600080fd5b50565b60008151905061072981610703565b92915050565b600060208284031215610745576107446102ed565b5b60006107538482850161071a565b9150509291505056fea2646970667358221220007daab641d6e82343af0657498ec3fa4bd352a6dacfc96b4c886743d84c3fc964736f6c634300080b0033",
  "immutableReferences": {},
  "source": "// SPDX-License-Identifier: MIT\npragma solidity 0.8.11;\n\nabstract contract ERC20Interface {\n    function balanceOf(address) view public virtual returns (uint);\n}\n\ncontract BalanceChecker {\n\n    struct Token {\n        address tokenAddress;\n        uint balance;\n    }\n\n    function tokenBalance(address _user, address _token) private view returns(uint){\n        return ERC20Interface(_token).balanceOf(_user);\n    }\n\n    function checkBalances(address _walletAddress, address[] memory _tokens) public view returns(Token[] memory){\n        Token[] memory tokenBalances = new Token[](_tokens.length);\n      \n            for(uint i = 0; i < _tokens.length; i++){\n                // Could do this a bit smarter\n                if (_tokens[i] != address(0x0)) { \n                    Token memory tempData = Token(_tokens[i], tokenBalance(_walletAddress, _tokens[i]));\n                    tokenBalances[i] = tempData;\n                } else {\n                    Token memory tempData = Token(_tokens[i], 0);\n                    tokenBalances[i] = tempData; \n                }\n            }\n        return tokenBalances;\n\n    }\n}",
  "sourcePath": "/home/odin/Dungeon/Github/Code-Challenge/src/problem5/contracts/BalanceChecker.sol",
  "compiler": {
    "name": "solc",
    "version": "0.8.11+commit.d7f03943.Emscripten.clang"
  },
  "schemaVersion": "3.4.4",
  "updatedAt": "2022-01-26T05:21:55.819Z",
  "networkType": "ethereum",
  "devdoc": {
    "kind": "dev",
    "methods": {},
    "version": 1
  },
  "userdoc": {
    "kind": "user",
    "methods": {},
    "version": 1
  }
}